:080000000C940C010C940000AB
:100008000C9400000C9400000C9400000C94000068
:100018000C9400000C9400000C9400000C94000058
:100028000C9400000C9400000C9400000C94000048
:100038000C9400000C9400000C9400000C94000038
:100048000C94C7010C9400000C940000FEFDFBF713
:100058003738392F3435362A3132332D43303D2B5A
:100068001027E80364000A000100001000011000D6
:100078000100000000000000000000007F006D6F1C
:1000880064653A68696768006D6F64653A6E6F7297
:100098006D616C006D6F64653A6F6666002F3A207B
:1000A80054656D70002A3A20496E74657276616CE9
:1000B8000054656D703D202564002B3A204869671F
:1000C80068002D3A204C6F770054656D703A202BEC
:1000D8002564202D256400433A204261636B003D6E
:1000E8003A20696E20686967682074656D70003D04
:1000F8003A20696E206C6F772074656D70002B3A1A
:100108002068696768002B3A2075707065722069ED
:100118006E74657276616C002D3A206C6F7765722B
:1001280020696E74657276616C00696E74657276AA
:10013800616C3A202B2564202D2564003D3A206906
:100148006E206869676820696E74657276616C00F4
:100158002D3A206C6F7720696E74657276616C0039
:100168003D3A207361766520696E74657276616CBC
:10017800002B3A206869676820696E746572766139
:100188006C0080C0090005007A0001008F0284001D
:1001980008006001A5000C006801AD0008007401AA
:1001A800C20007007C01CA0008008301DF001000BC
:1001B8008B01E70007009B01CA000800A201DF00CD
:1001C8000F00AA01F7000800B90106010800C101E3
:1001D800DF001200C9010E011200DB012001080036
:1001E800ED01DF001400F501440110000902580177
:1001F80008001902DF001100210268011100320213
:10020800790108004302DF0002009B028A01000016
:10021800F894EE27ECBBF1E0FBBFEBBFE5BF8DE048
:10022800A2E0BB27ED938A95E9F780E094E0A0E689
:10023800ED930197E9F7ECE8F1E085919591009746
:1002480061F0A591B59105901590BF01F001059059
:100258000D920197E1F7FB01F0CFEFE5EDBFE4E088
:10026800EEBFC0E6D1E00C941802AA93E52DF0E0A9
:10027800309759F4A881AF3211F4E1E05E2EA881DD
:10028800AA3211F4E4E05E2E7CC0E130A0E0FA0767
:1002980079F4A881AB3211F4E2E05E2EA881AD3288
:1002A80011F4E3E05E2EA881A33409F4552469C053
:1002B800E430A0E0FA0779F4A881AB3211F4E5E064
:1002C8005E2EA881AD3211F4E6E05E2EA881A3343B
:1002D80009F4552456C0E230A0E0FA0789F4A88151
:1002E800A33411F4E1E05E2EA881AD3211F4E3E00D
:1002F8005E2EA881AD3319F40E94D0054F0141C08C
:10030800E330A0E0FA0789F4A881A33411F4E1E00E
:100318005E2EA881AB3211F4E2E05E2EA881AD33E7
:1003280019F40E94D0055F012CC0E530A0E0FA075F
:1003380089F4A881A33411F4E4E05E2EA881AD32DB
:1003480011F4E6E05E2EA881AD3319F40E94D005C1
:100358006F0117C0E630A0E0FA0799F4A881A3342A
:1003680011F4E4E05E2EA881AB3211F4E5E05E2ED4
:10037800A881AD3331F40E94D005E0938D02F0934B
:100388008E020C9479040A921A92FA926A937A93DA
:100398008A939A93AA93BA93EA93FA93EFB7EA9354
:1003A8001A93C5D11E2FA12F60DF103391F011339E
:1003B80081F0123371F0133361F0143351F01533B7
:1003C80041F0163331F0173321F0183311F0193397
:1003D80039F4F301E55BFD4F1083F30131963F01DA
:1003E800E1E0F0E0E615F70514F4662477241991A6
:1003F800E991EFBFF991E991B991A9919991899101
:1004080079916991F990199009901895AA93E881C2
:10041800E7B983E08A95F1F7369A349BFECF349A90
:10042800E4B1F5B10C947904E0E0EABBEBBBE8E099
:10043800E7BBE0E0E8BBE4BBE5BBE1BBE2BBE1E670
:10044800E3BFE0E0E2BFECBFEFBDEEBDEDBDECBD4C
:10045800E7BDE6BDEBBDEABDE9BDE8BDE2BDE5BD72
:10046800E4BDE3BDE9BFEBB7E062EBBFE0E0E5BFA9
:10047800E4BFE0E2EABFE0E0EAB9E0E8E8B9E0E0DA
:10048800E7B9E1EAE6B9E0E0E0BFEDB9E6BFA0E12F
:100498000E944D047894EFE0E4BBE0EFE5BBB89A26
:1004A800B99AC09AC198E0E0ECBFA0E0AFDF662738
:1004B80077270E94E106DF01CB01E3E3F3E363E082
:1004C80070E40E940F07A1E9B2E00E94AA06ED932A
:1004D800FC93F601E80DF91DE0939902F0939A0256
:1004E800F401EC19FD09E0939702F09398020E9439
:1004F800E005EA0DFB1DE0939502F0939602A091AA
:100508008D02B0918E02F501EA1BFB0BE09393027A
:10051800F09394020E94E505EA17FB073CF4E8EC27
:100528000E94EE05E6E8F0E00E94F4050E94E50569
:10053800AE17BF072CF40E94FB05EA17FB075CF017
:100548000E94FB05AE17BF072CF40E940406EA17A9
:10055800FB070CF008C0E0918F020E94EE05E0E96D
:10056800F0E00E94F4050E940406AE17BF073CF4B1
:10057800E0E00E94EE05ECE9F0E00E94F405E52DCC
:10058800F0E0309749F50E940D06A0E6B1E00E9420
:100598001406A1E037D1A8E6B1E00E941406A2E053
:1005A80031D1EDE7F2E0FA93EA93E9EBF0E0FA9360
:1005B800EA93E0919102F09192020E94190684E078
:1005C8000E949C052896ADE7B2E00E941406A3E0BD
:1005D80019D1ADE4B2E0A4C0E130A0E0FA07C1F45B
:1005E8000E940D06A4E7B1E00E941406A1E00AD11A
:1005F800ACE7B1E00E9414060E941E06F5010E94B5
:1006080019060E942B06A3E0FDD0A3E8B1E088C03C
:10061800E230A0E0FA07C1F40E940D06ABE8B1E0B1
:100628000E941406A1E0EED0ABE9B1E00E941406E6
:100638000E941E06F5010E9419060E942B06A3E0DF
:10064800E1D0A2EAB1E06CC0E330A0E0FA07C1F45F
:100658000E940D06AAEAB1E00E941406A1E0D2D0D9
:10066800A9EBB1E00E9414060E941E06F5010E9443
:1006780019060E942B06A3E0C5D0A1ECB1E050C03A
:10068800E430A0E0FA07B9F40E940D06A9ECB1E045
:100698000E941406A1E0B6D0ABEDB1E00E941406AA
:1006A8000E9432060E943F060E944106A3E0AAD09B
:1006B800ADEEB1E035C0E530A0E0FA07B9F40E942C
:1006C8000D06A5EFB1E00E941406A1E09BD0A9E0B9
:1006D800B2E00E9414060E9432060E943F060E9461
:1006E8004106A3E08FD0A9E1B2E01AC0E630A0E04D
:1006F800FA07D9F40E940D06A1E2B2E00E9414069E
:10070800A1E080D0A2E3B2E00E9414060E94320663
:100718000E943F060E944106A3E074D0A3E4B2E021
:10072800A7D0A4E6B0E00E947106BFCEFFCF0E941A
:10073800960700E010E02FEF3FEF40E050E000E0C8
:1007480010E00430E0E01E07C4F5F801EC5AFF4F52
:10075800049005BA9C9902C020E030E09D9902C03F
:1007680021E030E09E9902C022E030E09F9902C06B
:1007780023E030E0EFEFFFEFE217F307D9F0F801DD
:100788000E946407E20FF31FAF012FEF3FEF9C9B1E
:10079800FECF9D9BFECF9E9BFECF9F9BFECFE0EFA3
:1007A800E5BBA2E3B0E00E947106FA01E85AFF4FE8
:1007B800E49104C00F5F1F4FC4CFC1CF0E949D07B3
:1007C80026960895AA93E2B3EF70AE2FE881E07FF2
:1007D800EA2BE2BB82E08A95F1F7929A82E08A9549
:1007E800F1F7929882E08A95F1F77FC0AA93A881E1
:1007F800E9DFE881E295E883A881E4DF81E18A9571
:10080800F1F773C0AA93E881F0E0E556FD4FE08167
:10081800A981AE0FEBDF4980E881E0939F02229621
:100828000895A2E00E944806ACE0E0DFA1E00E9443
:100838004806E0E0E0939F024E2E0895AA93A8810F
:10084800AA3021F0E091A0024E1660F0E0E0EA93B1
:10085800A0919F02AF5FA0939F02D4DFA881AA3026
:1008680009F443C04394909AA881C0DF90983DC092
:10087800BA93AA931A93A981BA81ED91A983BA83ED
:100888001E2FE03019F0A12FD9DFF5CF188123965C
:100898000895AA93E1B3E06FE1BB8A9A889A899A8E
:1008A800929890989198E881E093A002E058E0939C
:1008B8009D02E881E054E0939E02A4E1B0E00E942A
:1008C80071060E944E060E944E060E944E06A0E245
:1008D80079DF81E28A95F1F7A8E288DFA4E086DF74
:1008E800A5E884DFA6E082DF9CDF21960895BA930D
:1008F800AA931A930A93AA81BB8112960E94890728
:10090800309759F1AA81BB8114960E9489078F01FB
:10091800309761F00230E0E01E0798F0F801319757
:100928008F01AA81BB811496ED93FC93AA81BB81A8
:100938001296ED91FD913196FE93EE933197AC812D
:10094800A083AA81BB810E948907FF232AF0ED9129
:10095800FD913196FE93EE9306C0AA81BB81EFEF1D
:10096800FFEFED93FC931981088125960895BA93BA
:10097800AA9324970E94960710E0AA85BB85E0E019
:10098800F0E0ED93FC93E889F9893196E88BF98BCF
:100998003197E4913E2FE03009F4C2C0E12FE030F6
:1009A80039F4353211F411E002C00E945506B7C07F
:1009B800E13089F4353219F40E945506AFC012E0CF
:1009C80020E000E03B3211F42BE2A9C0303211F4F0
:1009D80020E2A5C002C0E23031F4303319F40061DE
:1009E80015E09DC003C0E53009F099C0E32FE33658
:1009F80061F40E945C06EE85FF85A481AA93AB850D
:100A0800BC85ED85FE85099589C0E33781F40E9490
:100A18005C060E946206AE81BF81ED91AE83BF8302
:100A28003E2FE03019F00E945506F5CF77C0E03729
:100A380091F40E945C060E946206EE81FF81319665
:100A4800EE83FF833197E4913E2FE03019F00E9446
:100A58005506F3CF63C0E43611F0E93611F40160AE
:100A680002C0E53719F4E8E6F0E009C0E83511F40A
:100A7800026003C0E83709F051C0E2E7F0E0EE8316
:100A8800FF8300FF17C00E945C06AE85BF851496E1
:100A98004D915C9155232AF4FA010E945807AF0141
:100AA8002DE2203031F02A93AB85BC85ED85FE859B
:100AB800099507C00E945C06AE85BF8514964D91C6
:100AC8005C9130E3EE81FF810E948D07E887F9870A
:100AD800EE81FF813296EE83FF83E885F9854E1714
:100AE8005F0730F03F5FA885B9854A1B5B0BF5CFE0
:100AF80004FD06C0313320F4A885B985119751F457
:100B080000613A3328F001FF02C0395F01C0395D46
:100B18000E945506A885B985129798F610E033CF3C
:100B2800AA85BB850E9489070E949D076296089541
:100B3800FF92F82E26970E9498070E946A0630971F
:100B480019F4EFEFFFEF23C0DE0116960E94540759
:100B58008D010E946A06EE83FF83E0E0E887E9875B
:100B6800DE011A960E9454070E948907FA93EA93B5
:100B78001A930A93EBE7F4E0FA93EA93DE011A96E4
:100B8800F6DE9F01AE81BF81E0E0EC93F9010E949F
:100B98009F072A96FF900895E0914B02F0E0F097A6
:100BA800AAE0B0E00E947607DF01E0914C02F0E095
:100BB800F097EA0FFB1F0895E0918D02F0918E02E5
:100BC8000895E0919902F0919A02A0919102B09152
:100BD80092020895ECBFEDE4F2E0FA93EA930895E7
:100BE800FA93EA9380E00E949C0524960895E09188
:100BF8009502F0919602A0919102B0919202089507
:100C0800E0919302F0919402A0919102B091920226
:100C180008950E941504E0E0EA93A0E00C9406040D
:100C28000E943C04E0E0EA9308950E9469070E944C
:100C380091070895A2E00E940604EDE5F2E0FA9318
:100C4800EA93E1EDF0E0FA93EA93F401EECF88E05D
:100C58000E949C052C96ADE5B2E0E2CFA2E00E948E
:100C68000604EDE6F2E0FA93EA93E2E3F1E0FA93A0
:100C7800EA93F601DACFA0DFD8CF88E00E949C057E
:100C88002C96ADE6B2E0CCCF0E94FA03A3E0B0E028
:100C98000C947106A0E30E94E60381E28A95F1F7BD
:100CA80008953A93AB85BC85ED85FE850995089531
:100CB800EE85FF853497EE87FF870895AE85BF855B
:100CC80014960E948907EE83FF830895DE011C961F
:100CD8000E9454070E9489070895109639F08AEFF8
:100CE80090E00197F1F7A8951197C9F70895552352
:100CF80042F4503811F4E0FF04C03196691F791F9F
:100D08006BF050E8572711F45F9373C05F3F31F0E1
:100D1800660F000C57956795752F08955F9300200F
:100D28000AF073C06CC050E8192E1522880F991F5D
:100D38009527550F879550E8072E0522660F771FD0
:100D48007527550F67950895689401C0E8945F93D7
:100D5800F2DF703818F07F3F08F44BC056E1571B9C
:100D6800AAF4519558300EF4593030F0EFEFFFEFF8
:100D78006FEF7FE777F91AC077275523B9F0EE0FA1
:100D8800FF1F661F771F5A95D1F710C07727583075
:100D980028F0EF2FF62F672F5850F9CF552331F051
:100DA80076956795F795E7955A95D1F700200AF457
:100DB8007FD05F910895689401C0E89430976040AF
:100DC8007040B1F0002426F0772312F4009470D01C
:100DD800172E7EE1112032F07A95EE0FFF1F661F65
:100DE800111CF9CFEF2FF62F612D5F938ADF5F91EA
:100DF8000895EE27FF27662777275F910895EFEF7D
:100E0800FFEF6FE77FEF5F910895EFEFFFEF6FE779
:100E18007FE75F9108955F9386DF703821F4112092
:100E28000AF4EDCFF2CF903809F4E3CF0124089407
:100E3800970B1BF4D4F30020F3CF792F1F932F9334
:100E48003F934F93112411272227332744275527EF
:100E580090E2AE17BF078607410730F0AE1BBF0B05
:100E6800860B410B089401C08894551F221F331F1D
:100E7800111CAA1FBB1F881F441F9A9551F7F9011F
:100E8800612D4F913F912F911F91662332F0550F9D
:100E9800EE1FFF1F661F7A9543F229DF5F910895C1
:100EA8000024AF0DB01D0895F195E195F040089527
:100EB800F09560957095E195FF4F6F4F7F4F0895BE
:100EC800EE0FFF1FEE0FFF1F08956F2F660F660BC3
:100ED800762F0895FA9FF02DEB9FF00DEA9FE02DF5
:100EE800F10D089504D0F6DF0EF4DEDF0895E894DE
:100EF800F7FF02C0D9DF6894B7FF06C0A095B09588
:100F0800119600F8039400FA0895ED91FC91119759
:100F180008950590F491E02D08957A936A93FA93D1
:100F2800EA9308955A934A933A932A931A930A9301
:100F380008955D814C813B812A811981088108953A
:00000001FF
